:020000002100DD
:1001000012014574801201319001811201737480D3
:10011000120131900190120173748012013190012B
:100120009F12017374801201319001AE120173218C
:100130002FC2B28004D2B28000F590D2B3C2B3D243
:10014000B31201782274011201311201787438124D
:100150000131120178740C12013112017874061207
:100160000131120178222430120135120178221255
:100170000135A3E49370F8227EFA7FFADFFEDEFAFF
:100180002253454C414D415420444154414E470077
:1001900050415241204D4148415349535741015428
:1001A000454B4E494B20454C454B54524F01554908
:1001B0004E2053554E414E2047554E554E472044F4
:0D01C0004A4154492042414E44554E4701EA
:00000001FF
